:100000000C9434000C9451000C9451000C94510049
:100010000C9451000C9451000C9451000C9451001C
:100020000C9451000C9451000C9451000C9451000C
:100030000C9451000C9451000C9451000C945100FC
:100040000C9451000C9451000C9451000C945100EC
:100050000C9451000C9451000C9451000C945100DC
:100060000C9451000C94510011241FBECFEFD8E026
:10007000DEBFCDBF11E0A0E0B1E0EEE3F1E002C0F1
:1000800005900D92A030B107D9F711E0A0E0B1E0E2
:1000900001C01D92A030B107E1F70E9453000C94FB
:1000A0009D000C940000DF93CF9300D000D0CDB71B
:1000B000DEB7E4E2F0E080E28083E5E2F0E080E2B7
:1000C000808319821A821B821C820BC089819A81CB
:1000D000AB81BC810196A11DB11D89839A83AB833D
:1000E000BC8389819A81AB81BC81803A26E89207E2
:1000F00021E0A20720E0B2074CF3E5E2F0E0108235
:1001000019821A821B821C820BC089819A81AB8161
:10011000BC810196A11DB11D89839A83AB83BC83E9
:1001200089819A81AB81BC81803A26E8920721E0DF
:0E013000A20720E0B2074CF3C0CFF894FFCF37
:00000001FF
